:101CDE003230303900303800323200323300343492
:101CEE00004D5A54583036412074657374696E67CE
:021CFE002100C3
:101D00007593FF75B12075B40A7580FF7590FF75E6
:101D1000A0FF75B0FF75C0FF43A22075CEDCC2B432
:011D200022A0
:101A6400121D001215E81217801219BC74FFFFFE34
:101A7400121C04751800751902AE19EE24FEFFEE4F
:101A840025E0FDE4FB1219020519E5197002051899
:101A9400C39408E518940040E07BFF7A1C79DEE4E7
:101AA400F51E7D04121C9E7BFF7A1C79E3E4F51E6F
:101AB4007D0A121C9E7BFF7A1C79E6E4F51E7D0EDE
:101AC400121C9E7BFF7A1C79E9E4F51E7D12121C20
:101AD4009E7BFF7A1C79ECE4F51E7D16121C9E7B1E
:101AE400FF7A1C79E6E4F51E7D1A121C9EE4FFFEC3
:101AF400121C047BFF7A1C79EFE4F51EFD121C9E78
:031B0400021A675B
:100080000000000000000000000000000000000070
:10009000000000000000000F080808080808080019
:1000A00000000000000000F8080808080808080020
:1000B000080808080808080F0000000000000000F9
:1000C00008080808080808F8000000000000000000
:1000D00008080808080808080808080808080800A8
:1000E00000000000000000FF000000000000000011
:1000F000000000183C7E7E7E3C18000000000000DE
:10010000FFFFFFE7C3818181C3E7FFFFFFFFFF0020
:1001100000000000000000000000000000000000DF
:1001200000000000000000000000000000000000CF
:10013000001F050509091010384444443800000028
:10014000001C2222221C08087F0808080800000062
:10015000000000000000000000000000000000009F
:10016000031D11131D1111111317367060000000CB
:1001700008085D222222632222225D080800000076
:1001800008080808080808FF080808080808080000
:10019000000103070F1F3F7F3F1F0F0703010000F0
:1001A000081C2A08080808080808082A1C08000073
:1001B00000242424242424242424000024240000B3
:1001C000001F25454545251D0505050505000000C1
:1001D00008080808080808FF0000000000000000E8
:1001E00000000000000000FF0808080808080800D8
:1001F00008080808080808F8080808080808080097
:10020000081C2A0808080808080808080808000048
:10021000080808080808080F08080808080808005F
:10022000000000000004027F020400000000000043
:10023000000000000010207F2010000000000000DF
:1002400000000000000000000000000000000000AE
:10025000000000000000000000000000000000009E
:10026000000000000000000000000000000000008E
:10027000000000000000000000000000000000007E
:10028000000000000000000000000000000000006E
:1002900000001010101010101000001818000000BE
:1002A000123624480000000000000000000000009A
:1002B0000000242424FE484848FE48484800000026
:1002C000001038545450301814145454381010007E
:1002D000000044A4A8A8A8541A2A2A2A440000000E
:1002E000000030484848506EA49488897600000089
:1002F000606020C00000000000000000000000005E
:100300000204080810101010101008080402000061
:1003100040201010080808080808101020400000AD
:100320000000001010D63838D61010000000000071
:1003300000000010101010FE10101010000000003F
:100340000000000000000000000000606020C0000D
:10035000000000000000007F00000000000000001E
:1003600000000000000000000000006060000000CD
:100370000001020204040808101020204040000080
:100380000000182442424242424242241800000027
:100390000000107010101010101010107C000000E1
:1003A00000003C4242420404081020427E0000004B
:1003B00000003C424204180402024244380000009B
:1003C0000000040C14242444447E04041E00000095
:1003D00000007E4040405864020242443800000061
:1003E00000001C244040586442424224180000008F
:1003F00000007E4444080810101010101000000087
:1004000000003C4242422418244242423C00000088
:1004100000001824424242261A020224380000003A
:10042000000000000018180000000018180000006C
:10043000000000000000100000000000101020006C
:1004400000000204081020402010080402000000F0
:100450000000000000FE000000FE000000000000A0
:100460000000402010080402040810204000000092
:1004700000003C4242620204080800181800000014
:10048000000038445AAAAAAAAAB44244380000007C
:1004900000001010182828243C444242E7000000C5
:1004A0000000F8444444784442424244F8000000CA
:1004B00000003E424280808080804244380000003C
:1004C0000000F8444242424242424244F8000000E6
:1004D0000000FC424848784848404242FC00000086
:1004E0000000FC424848784848404040E000000096
:1004F00000003C44448080808E84444438000000E6
:100500000000E7424242427E42424242E70000008F
:1005100000007C1010101010101010107C00000053
:1005200000003E0808080808080808080888F000C5
:100530000000EE444850705048484444EE0000002B
:100540000000E0404040404040404042FE0000008B
:100550000000EE6C6C6C6C5454545454D600000083
:100560000000C7626252524A4A4A4646E200000010
:1005700000003844828282828282824438000000F5
:100580000000FC424242427C40404040E00000000B
:10059000000038448282828282B2CA4C380600004F
:1005A0000000FC4242427C4848444442E3000000D0
:1005B00000003E4242402018040242427C000000FB
:1005C0000000FE92101010101010101038000000E3
:1005D0000000E74242424242424242423C000000A6
:1005E0000000E7424244242428281810100000008C
:1005F0000000D692929292AAAA6C44444400000051
:100600000000E7422424181818242442E7000000C0
:100610000000EE444428281010101010380000008C
:1006200000007E840408081020204242FC000000E4
:100630001E1010101010101010101010101E0000BE
:10064000004040202010101008080404040202009A
:10065000780808080808080808080808087800004A
:100660001C2200000000000000000000000000004C
:100670000000000000000000000000000000FF007B
:1006800060100000000000000000000000000000FA
:100690000000000000003C421E2242423F000000D9
:1006A0000000C0404040586442424264580000008C
:1006B0000000000000001C22404040221C000000FE
:1006C0000000060202021E22424242261B000000D7
:1006D0000000000000003C427E4040423C00000020
:1006E00000000F1110107E10101010107C00000080
:1006F0000000000000003E444438403C42423C00C0
:100700000000C04040405C6242424242E7000000BC
:100710000000303000007010101010107C0000003D
:1007200000000C0C00001C040404040404447800C1
:100730000000C04040404E4850684844EE00000071
:100740000000701010101010101010107C0000002D
:10075000000000000000FE4949494949ED00000041
:10076000000000000000DC6242424242E70000005C
:100770000000000000003C42424242423C000000B7
:10078000000000000000D864424242447840E0008B
:100790000000000000001E22424242221E0207000A
:1007A000000000000000EE3220202020F8000000B1
:1007B0000000000000003E42403C02427C0000007D
:1007C0000000000010107C10101010100C00000031
:1007D000000000000000C642424242463B000000CA
:1007E000000000000000E742242428101000000050
:1007F000000000000000D79292AAAA444400000022
:100800000000000000006E24181818247600000074
:10081000000000000000E742242428181010E00027
:100820000000000000007E44081010227E0000003E
:10083000030404040404080404040404040300007E
:100840000808080808080808080808080808080030
:100850006010101010100810101010101060000020
:100860004C430000000000000000000000000000F9
:100870000000000000000000000000000000000078
:1008800008000FFC1080108020804FF888800880BE
:1008900008800880FFFE00800080008000800080CB
:1008A00007F004100410041007F0041004100410E2
:1008B00007F004100810081010102050402000000D
:1008C00000001FF010101010101010101FF010106A
:1008D00010101010101010101FF010100000000069
:1008E000001000107C10441047FE44107C1045108E
:1008F000449044907C100010001000100050002024
:1009000008800C800840102010302018400E9FE412
:100910000420042004200420082010A020404000CF
:100920000C20F02010201128FDA4112232223A20A0
:1009300054225422900410081010106011801600E8
:100940006CBD64BD5CBF54BF54BF5CBE649D649D00
:10095000649D5CDF4CBF44BF4CDF54DF649C6C9CE7
:10096000643D6C9E74BE6CBD649C64BC5CBD549D57
:100970005CBF549F549F5CBF5CDF5CBE54BD5CBDDC
:100980005C9E5C9E5C9E5C9E5C9E5C9E5C9E5C9E97
:100990006CBD64BD5CBF54BF54BF5CBE649D649DB0
:1009A000649D5CBE54DF4CBF54DF64FE6CDC749B02
:1009B0007CBC747B643964596CBA6CFB6CDC64BCC1
:1009C0005CBD5CBE5C9E547E547E5CBF5CDE5CBEE7
:1009D0005C9E5C9E5C9E5C9E5C9E5C9E5C9E5C9E47
:1009E00064BE64BE5C9F5C9F5C9F5C9E649D649DD6
:1009F0006CBE5C7D5C9E64FE6CDD645A537542B0D7
:100A000029CC21AA198911690949118B32B053D611
:100A10005C186C9C6CFE64BE5C7E5C7F5C9F5C9F23
:100A20005C9E5C9E5C9E5C9E5C9E5C9E5C9E5C9EF6
:100A300064BE64BE5C9F5C9F5C9E649E649E649D7D
:100A40006CDE645C6C9C749B5BB63A7029AC21498B
:100A500029871925194629C829C919691108092999
:100A60002A4F4B546C7A74FD64BD5C5E5C7F5C9F66
:100A70005C9F5CBE5CBE5CBE5CBE5CBE5CBE5CBEC5
:100A800064BF649F649E649E649E649E649E649E34
:100A9000649D74DD747A5313298B2128316941C90F
:100AA00052AB4A49420941E939C93189318931A9F1
:100AB00010E619893ACF64366CDA64BC5C9D64BE7A
:100AC0005CBE5CBE5CBE5CBE5CBE5CBE5CBE5CBE56
:100AD0005CBF64BF649E649D649E649E5C9F5CBEBC
:100AE000647C74BB5B74318B290739A84A2A526A2B
:100AF00039A64A475A6A524A522A522B41E931874B
:100B00002946110511673ACE6457751C64DD5C9D5A
:100B100064BE64BE64BE64BE64BE64BE64BE64BEC5
:100B20005CBF5CBF649E649D649D5C9E5CBF5CBF5B
:100B300064BD53D731ED29274A09524962CB8C71E4
:100B4000CE779CF05AC94A498C11C5B89C734A09A2
:100B5000420829A6112511893B33649B6CDF547E22
:100B600064BF64BE64BE64BE64BE64BE64BE64BE74
:100B70005CDF5CBE649D649D649D5CBE54BF54DFBD
:100B80005CBD3B14194939A85A8A41C66B6DF7DE22
:100B9000FFFDBE35636C632CCE19FFDFDE5B62ABFD
:100BA00039A631C6114500E61A0E54196CFF649F30
:100BB00064BF64BE64BE64BE64BE64BE64BE64BE24
:100BC0005CDF5CBE64BD649C64DE5CDE4C7E54DE37
:100BD000545A098C21A94A294A275AA98491F7FF16
:100BE000B65742C9532C7C11B5787370DEBC7BAF0D
:100BF000422829852186090600E953D86CBE64BFC6
:100C000064BE64BE64BE64BE64BE64BE64BE64BED4
:100C10005CDE5CBD64BD64BC64DD5CDE549D5CDD9B
:100C20004C1811AC194739E75AA9630A8470F7FFC9
:100C30007CB13A695B2D73D1B5B9A4F6EEFD736E44
:100C400041E739E63228198700E832D25C3A649DE0
:100C500064BE64BE64BE64BE64BE64BE64BE64BE84
:100C60005CDD64DD5CBD5CBD5CBD5CBD5CBD64BB6E
:100C7000222F21AB39E952485AA94A676BCDF7FFB9
:100C8000F7FF9D1473AF6B6FDE9CFFDFFFBF6AEB56
:100C900041C531A42164090300E6222D64586CBBD0
:100CA00064BD64BE64BE64BE64BE64BE64BE64BE35
:100CB0005CBD64DD5CBD5CBD5C9D5C9D6CDC6458B2
:100CC00031ED31A949E85A2762A85A875AE9AD722D
:100CD000EF39944E524649C4ACD1EED9C553416365
:100CE000522641E5296419041947198A64156C9A3A
:100CF00064BD64BE64BE64BE64BE64BE64BE64BEE5
:100D0000649C64DD5C9D5CDF5C9E649C7CBB6B943E
:100D1000398A414651A659E55A0562666AA77306A3
:100D20007B029362AC269BA48B438B047A836A4339
:100D3000496149833965312620E7086752F3743ADF
:100D40006C9D64BE64BE64BE64BE64BE64BE64BEAC
:100D5000649C64DE549E5CDF5C9E647C849A62D0FA
:100D600040E5512469E6722672459369BC8DC4AA98
:100D7000E547DD03E524E545E546D4E6B404AB8567
:100D8000828461C3390330C5208610474A2F73F827
:100D90006C9D64BE64BE64BE64BE64BE64BE64BE5C
:100DA0006C9C6CDE547E64FF5C9F6C7C8C58620C87
:100DB00071E879C571838225AB8AD4EEED90FDACE4
:100DC000F504FD41FD62FD41F4E1DC81E4C4DCA7F2
:100DD000CC898AA55143412538E630E7418A73948E
:100DE0006C9C64BE64BE64BE64BE64BE64BE64BE0D
:100DF0006C9D6CDE547E64FF64BF6C7B8C5759899C
:100E00008187A20791639142A225A245B2C6DC2840
:100E1000F485FD03FD23FD23FD44E4A3D4249A407F
:100E20009A62710060A0612448C44106392873D5D4
:100E30006C9C64BE64BE64BE64BE64BE5CBE5CBECC
:100E40005C7E64BF5C9E64BE5CBD6CBA424E5989D8
:100E50009167C1A7FB0BD184B96398C0A12288E038
:100E6000A223B325C3E6BBE59B027A00694071016A
:100E700080A1804098C288C370C450A530E86375D3
:100E800074BD64BE5C7D64DF64DF5C9E64DF5CBE59
:100E900064DF64DF6CFF6CFD6CDB32B031AA40C5EF
:100EA0008126C1A7D986FA89F268C924B8C2B94493
:100EB00098E29102912189208140812188E288C3B2
:100EC000A925906290A180A2584130021825427055
:100ED000645A64BE5C9D64BF64BF5C9E64DF5CBE9C
:100EE000647F5C5D549C5CBA4BB409083147492669
:100EF00058A3D36DB9C7C965D925D904C8C2C8A13B
:100F0000D880D860C820C820D040C861C861B86106
:100F1000984088E181E4724730E21861100118E8D6
:100F20004B75649D64BE64BE64BE5C9E64DF5CBE43
:100F30006CDF6CFF64FC64B9220C1106312551A6EC
:100F40007A89FF1BFD14A925B883D0A3D0A2C8407D
:100F5000E060E880E8A1E881D840D021D062C0C339
:100F6000A103B30AB48F9CB03A0618E210410024E2
:100F700022305C3A6CDD649D649E649F64DF5C9EFD
:100F80005C3E647D6D1C435200C5296628E34164C4
:100F9000942FFFBDFE79AA08B8E5C883C800E924EC
:100FA000C923C164C163C143B943C1A5CA6ACB0D9A
:100FB000E4D4F618E698D698634B10C20842004471
:100FC000010B4BD86CBC649C649E649F64BF5C9EA8
:100FD0006CFF649C7D3C19CB08A43185318441E5CC
:100FE000B594FFBDE5F7AAECA926C904C800FAAA82
:100FF000FD56FD76FD53FD72FDB4FE37FE9BFEDE11
:10100000FEFEEE9CDE59EF1A9CB1108100210065B6
:10101000006743966C9B647C6CBE649E649F649F77
:10102000653F5C9C6C79196A10E52144216331E5C8
:10103000D698FF9DD5F7B410A24998E4C8E4FB6F99
:10104000FF3FFF5FFF7DFFBCFFFDFFFEF79FE73F18
:10105000DE9FD63CCD97EE99BD541061002200640E
:10106000002643756C9A647B6CBE647E647E64BFAC
:1010700054BC6D1D74797C3673B17C106BAD84905B
:101080007BEE8C2F8BEF93AE9B2C4000A905F3D108
:10109000FF5FFFBFFFFFFFFFF7FFEFFFDFBFDF7F58
:1010A000D6BFE6FFDE5ADE38B534084000630044A0
:1010B00000464B746C7A645B6C9E647E647E6CBF8D
:1010C0006D7E5C9A84FB6BB4EFBFF7DFFFFFF7FE2A
:1010D000FFFEFFFEFFFEFF9DFFDE200081A7F5352E
:1010E000FF9FFFFFFFFFF7FFF7FFF7FFE77FEF7FB0
:1010F000DEFDBE39D71BC6B97C5010E321050002C6
:10110000004632F274BB6CBC647C649E6C9F649F2E
:101110004C596D1B6C588498F7FFF7BFFFFF000018
:10112000082000001040FFFEFF7D0800EE59FF9EE2
:10113000FFDEFFFFF7FFF7FFF7FFF7FFE73DDEFBFF
:10114000E75CBE57BEB8BED9536D1125630F18C8F2
:10115000116B43746C9A6C9C647C649E647F647FA6
:10116000751C6CFB64995BF5EFBFFFDFF77FFFDF5A
:10117000080000200020FFDEFFFF0000FFFFF7FE59
:10118000F7FEF7FEEFFEEFFEEFDFEFBFEF7EEF5D66
:10119000C677D739C71774AF00E342CE63336B9776
:1011A0004B3464586CBB6C9C6CBE6CBF649F64BF5A
:1011B000647A6CDB6CDA5C35F7FFFFFFFFDF080059
:1011C000000000000020FFFEFFDE0000F7FEF7FE3B
:1011D000F7FEF7FEF7FEF7FEEF9DE73DDEDBD67983
:1011E000EF39C613BE1129803A475B707C7A7CBD0B
:1011F0006C7A6CDB6CDC6CBD6CDE6CBF64BE64DF77
:101200006CBD6CDC6CF96455E7BFFFFF080008009B
:101210000840FFFF0021FFFFFF7D0840FFFDF7DCD6
:10122000FFDFFF5EFF5DFF5DF71CEEFCEEDCE678A6
:10123000DDF3B46A7A60A3E77B2852CC6C79649DB5
:1012400064BC6CDC64BC64BD64BE649E5C9E64DF94
:10125000647D649B6CB96C95EFFFFFFF000000009C
:10126000FFFFF7BFEF5EFFFFFFFF0800E6D7FFBB02
:10127000FF7EFEFDFF3DFF5DE6DBE69AE678DDB230
:10128000AB86BB83C3A1F568CD2C62C93AF15C7A09
:1012900064BC6CDD64BD64BD64DE64BE5C9E64FEE3
:1012A00064FF5C5B853B7454F7FFFFFD0020FFFD8E
:1012B000FFFFFFFFFFDFF79FF75C10207AE7A40B2B
:1012C000CD94BD55BDF8C679A5B6A532AC8D9B446D
:1012D000CBE1FCE2FD00FDC5E5A9C56E29A66C7653
:1012E0006CBB6CDE64DE64BE64FF64FF5CDE64FEC7
:1012F0005CBD753E6C376BD2F7FFFFFDEFDC002065
:10130000F7BEFFFFE71EFFFFFFFF0800C552A44F17
:1013100062CB3A0A2A2B2A6C2A4B5B4D9C6EB44A4C
:10132000DCC8E4E5FDA7DD47B4C96AE63A276C14DA
:101330006C9A6CDE64BD5C9D64DE64FE5CBD5CBD6D
:101340007D1C6C997CB863F3F7FFEFFFF7FFF7FEA6
:10135000FFFFF7DFFFFFFFFFF7DF00015ACC39EA9D
:10136000322E43125C176C585BF54311426D424BB1
:10137000528A5A8A5A894A6A4A8C5B506C15749907
:101380006CBC64BD649D64BD64DE64DD64BD64BD2D
:101390006C9A7D3C643700A800450024002200229E
:1013A0000021008300020003000400055B535BB5CD
:1013B0005C19647B74FC7D1D74DB6C796C586C3833
:1013C0005BD65BD65BF65BD66418747A7CDB7CFC00
:1013D0006CDD6CDD64BD6CDD6CDD64BD64BD649C86
:1013E00064DF753F6CFE64BC74FC7D1C7CDA7CFAA7
:1013F0006C777CFA7CB98D3C6C397CFD74BC74BD17
:1014000064BD64BD64BC6CDC6CDC74DC74FB74DBDC
:1014100074BA74DB7CFB7D1C855D8D7E855E7D1DD5
:1014200074FE74FE6CFD6CDD6CDD6CDD64BD649C73
:101430005CDF549F547E64FF64BE64BD649B6CBCDF
:101440007D1D5C5A647B74DD649D6CDF5C7D6CDFAC
:101450005C9D5CBD64BD64DD6CFD751D74FC74DB5E
:10146000751C7D1C7D3D855D857E857F7D3E74DDA3
:10147000751E751E751E74FE6CFD6CFD6CDD64BC06
:10148000653F653F653F549E547D64DE755F64BD76
:1014900064BD64BD751E6CFE6D1F6D3F6D1F545D98
:1014A0005CBD64FE6D1F6D1E6D1E751D751D6CFC93
:1014B000753D7D3D7D3E7D3E7D5E7D5F7D3E751E45
:1014C000751E753E7D5F753E751E751E751E6CDD45
:1014D0005CDE443B547C547C755F755F7D7F64BDEE
:1014E000751F7D5F6D1E6CFE5C9C6D1E757F651E9D
:1014F0005CDE6D1F6D3F6D1E64FD6CFD6D1D6CFD32
:101500007D5E7D5E753E751D753E7D5F7D5F753FC1
:101510006CFD7D5E7D7F7D5F7D5E7D5E753E6CFDDD
:1015200085DF6D1D753D755E7D3E647B6CDD8D9F39
:1015300074FD6CBC7D5E859F7D5E753D753D757FE0
:101540006D3F757F7D9F753F6D1E755F755E753E46
:101550007D7F755E751D6D1D755E7D7F7D7F753E22
:101560006CFD7D5E859F859F7D7F7D7F753E6CFDDB
:101570007D5C85BE857D7D5D7D1D7D1D7CFD853E03
:10158000853E6CBB9E1F74FC7D5D751C753C755D56
:101590006D1E755F757F753F753F755F753E64DDC8
:1015A000859F7D5F751E751E7D7F8DDF859F751EF6
:1015B0006CFD7D7F8DBF859F859F7D7F753E6CFD1A
:1015C0002132534321411021000600031411001160
:1015D000100B050A2132434222421100000600038B
:0815E000342112010B07050A7A
:101D91001008F80007E0001FFFE00000FFFF07FF49
:021DA100F81F29
:101D2100E4FDFCC3ED9FEC9E5015E4FBFA0BBB00F8
:0F1D3100010ABA02F8BB58F50DBD00010C80E4A1
:011D40002280
:101D7900EF1F70011E144E600E7D081DED60F115F8
:071D89001AE51A60F680F86C
:011D90002230
:071DA4000000000000002216
:041D4100AD07AC0638
:101D4500C2B2C2B38CCFE5CD30E7FB75CDC08DCF28
:0A1D5500E5CD30E7FB75CDC0D2B23A
:011D5F002261
:0D1C5C0075F028A42427FDE435F0FC7E027D
:041C6900AB07AA0615
:101C6D00C2B2C2B38ACFE5CD30E7FB75CDC08BCF05
:101C7D00E5CD30E7FB75CDC0D2B38CCFE5CD30E7E8
:101C8D00FB75CDC08DCFE5CD30E7FB75CDC0D2B2A4
:011C9D002224
:041D6000AD07AC0619
:101D64008CCFE5CD30E7FB75CDC08DCFE5CD30E729
:041D7400FB75CDC06E
:011D78002248
:011DAB002215
:1015E800C2B67F147E00121D79D2B67F147E001217
:1015F8001D797D017C00E4FFFE121C697F0A121D23
:1016080079E4FDFF7E01121C690F121C697D107CB4
:10161800310F121C697D007CE20F121C697D9D7CD4
:10162800007F10121C697D220F121C697D200C7F1F
:1016380000121C697F141E121D797D207C317F00E9
:101648007E01121C697F501E121D797D007C017F6E
:10165800017E00121C691C0F121C697D307C120F60
:10166800121C69E4FDFC7F06121C690D0C0F121C8C
:10167800697408FDFC0F121C69E4FDFC0F121C695B
:101688007F0B121C690F121C697D180F121C69E46C
:10169800FD7F12121C690F121C697F18121C690F3A
:1016A800121C697F037E02121C690F121C697F10CD
:1016B800121C697DEF0F121C69E4FD0F121C697D75
:1016C8003F0C0F121C69E4FD1C0F121C690F121C41
:1016D800690F121C690F121C697D437C537F000E31
:1016E800121C697D217C100F121C697D037C000F80
:1016F800121C697D110F121C697D0A7C050F121CD2
:10170800697D427C430F121C697D007C110F121CFD
:10171800697D037C000F121C697D017C120F121C6D
:10172800697D0A7C050F121C697D277C407F000EAD
:10173800121C69E4FDFC0F121C690F121C697D3F25
:101748000C0F121C69E4FD1C0F121C69E4FF7E02D9
:10175800121C690F121C697D207C711F1E121C69E6
:101768007D037C017F071E121C697F0A121D797D8B
:08177800137F077E00021C69CB
:10178000E4FDFC7F107E02121C697F12121C697D31
:10179000EF1F121C697D3F0C7F13121C69E4FD1CB6
:1017A000FF121C690F121C690F121D41C2B2D2B385
:1017B000E4F9E925E02408F8E6F51A08E6F51B90B7
:1017C0002580AF1BAE1A121D60E5821582700215CE
:1017D00083E582458370EB09B908D7E4F9E4FDFCA1
:1017E0007F107E02121C697F12121C697DEF1F128E
:1017F0001C697D3F0C7F13121C69E4FD1CFF121C49
:10180000690F121C690F121D41C2B2D2B3E925E063
:101810002408F8E6F51A08E6F51BE4FBFAE4F5837C
:10182000F582AF1BAE1A121D60A3E582B440F3E54A
:1018300083B401EE0BBB00010AEB64F04A70DE09D1
:07184000E964037098D2B2C5
:01184700227E
:041C04008E1A8F1B8A
:101C0800E4FDFC7F107E02121C697F12121C697DA4
:101C1800EF1F121C697D3F0C7F13121C69E4FD1C29
:101C2800FF121C690F121C690F121D41C2B2D2B3F8
:101C3800E4FBFA900000AF1BAE1A121D60A3E58208
:101C480064F0458370F00BBB00010ABA01E5BB40A4
:031C5800E2D2B223
:011C5B002266
:1019BC00E4F520E4F51FE51F75F028A4FDACF07FDD
:1019CC00107E02121C69E52075F028A4FDACF07F96
:1019DC0012121C69E51F7F11121C5CE5207F13128B
:1019EC001C5CE51F75F028A4FDACF07F00121C698F
:1019FC00E52075F028A4FDACF00F121C690F121D28
:101A0C0041C2B2D2B3751CFF751D09751E40E4F5B9
:101A1C001AF51BAB1CE51EF92402F51EE51DFA3464
:101A2C0000F51D121BD9FFAEF0121D60051BE51B46
:101A3C007002051AC39440E51A940640D6051FE5BA
:101A4C001FC3940650030219C20520E520C3940855
:071A5C0050030219BFD2B2D2
:011A63002260
:061848008F1F8D20A90393
:10184E00E52075F008A4FDACF07F107E02121C6935
:10185E00E98FF0A4FDACF07F12121C69E52075F043
:10186E0008A42407FDE435F0FC7F117E02121C69EA
:10187E001FE98FF0A4240FFDE435F0FC7F13121C3A
:10188E0069E52075F008A4FDACF07F00121C69E933
:10189E0075F010A4FDACF00F121C690F121D41C2A1
:1018AE00B2D2B37522FF752300752480E51F75F043
:1018BE0010A4AEF02524F524EE3523F523E4F5210E
:1018CE00AB22AA23A924852182758300121BACFBAF
:1018DE00E4FAEB30E70474FF8001E4FFFE121D60B2
:1018EE00EB25E0FB0ABA08EA0521E521C394104076
:0318FE00CFD2B294
:0119010022C3
:101C9E008B1A8A1B891C8D1DAB1AAA1BA91C121B21
:101CAE0093FF602BAB1EAD1D121848051DE51DC31D
:101CBE00941E400EE4F51D051EE51E94144003E42B
:101CCE00F51E7401251CF51CE4351BF51B80C9227D
:061902008F1A8D1BA903E2
:10190800E51B75F010A4FDACF07F107E02121C6977
:10191800E98FF0A4FDACF07F12121C69E51B75F08D
:1019280010A4240FFDE435F0FC7F117E02121C691F
:101938001FE98FF0A4240FFDE435F0FC7F13121C7F
:1019480069E51B75F010A4FDACF07F00121C69E975
:1019580075F010A4FDACF00F121C690F121D41C2E6
:10196800B2D2B3751DFF751E08751F80E51A75F094
:1019780020A4AEF0251FF51FEE351EF51EE4F51C5C
:10198800AB1DAA1EA91F851C82758300121BACFB08
:10199800E4FAEB30E70474FF8001E4FFFE121D60F7
:1019A800EB25E0FB0ABA08EA051CE51CC3942040B5
:0319B800CFD2B2D9
:0119BB002209
:03000000021B07D9
:0C1B0700787FE4F6D8FD758125021B4EA6
:101B9300BB010689828A83E0225002E722BBFE0250
:091BA300E32289828A83E4932283
:101BAC00BB010CE58229F582E5833AF583E02250EE
:101BBC0006E92582F8E622BBFE06E92582F8E22238
:0D1BCC00E58229F582E5833AF583E4932252
:101BD900BB010A89828A83E0F5F0A3E022500687D7
:101BE900F009E71922BBFE07E3F5F009E319228999
:0B1BF900828A83E493F5F074019322CC
:101B1300021A64E493A3F8E493A34003F68001F26A
:101B230008DFF48029E493A3F85407240CC8C333D3
:101B3300C4540F4420C8834004F456800146F6DFA2
:101B4300E4800B0102040810204080901D91E47E84
:101B5300019360BCA3FF543F30E509541FFEE49397
:101B6300A360010ECF54C025E060A840B8E493A35E
:101B7300FAE493A3F8E493A3C8C582C8CAC583CA89
:101B8300F0A3C8C582C8CAC583CADFE9DEE780BE41
:011DA300003F
:00000001FF
