:100000000C9462000C948A000C948A000C948A0070
:100010000C948A000C948A000C948A000C948A0038
:100020000C948A000C948A000C948A000C948A0028
:100030000C948A000C948A000C948A000C948A0018
:100040000C94CC000C948A000C94BD010C948A0092
:100050000C948A000C948A000C948A000C948A00F8
:100060000C948A000C948A000000000024002700F1
:100070002A0000000000250028002B0000000000DE
:1000800023002600290004040404040404040202DA
:100090000202020203030303030301020408102007
:1000A0004080010204081020010204081020000012
:1000B0000007000201000003040600000000000029
:1000C0000000060311241FBECFEFD4E0DEBFCDBF7A
:1000D00011E0A0E0B1E0E4E1F8E002C005900D928B
:1000E000A236B107D9F712E0A2E6B1E001C01D9235
:1000F000A230B107E1F710E0C4ECD0E004C02297D1
:10010000FE010E940404C23CD107C9F70E94C50049
:100110000C9408040C940000809155010E946E011B
:10012000892B21F58FEE91E060E071E00E9477036A
:100130008FEE91E069E071E00E9477038FEE91E02D
:1001400063E171E00E9477038FEE91E067E271E076
:100150000E9477038FEE91E061E371E00E947703E4
:100160008FEE91E067E471E00E94770308958FEECF
:1001700091E040E855E260E070E00E94FA01809171
:10018000550160E00E944E0108950E9414010E94F2
:10019000B7000E948C00FDCF1F920F920FB60F92F6
:1001A00011242F933F938F939F93AF93BF9380918D
:1001B000660190916701A0916801B0916901309149
:1001C0006A010196A11DB11D232F2D5F2D3720F04F
:1001D0002D570196A11DB11D20936A0180936601E0
:1001E00090936701A0936801B093690180916201C7
:1001F00090916301A0916401B09165010196A11DE8
:10020000B11D8093620190936301A0936401B09348
:100210006501BF91AF919F918F913F912F910F9069
:100220000FBE0F901F901895789484B5826084BD9E
:1002300084B5816084BD85B5826085BD85B58160EA
:1002400085BDEEE6F0E0808181608083E1E8F0E04A
:10025000808182608083808181608083E0E8F0E03B
:10026000808181608083E1EBF0E080818460808325
:10027000E0EBF0E0808181608083EAE7F0E080815C
:1002800084608083808182608083808181608083BC
:100290008081806880831092C1000895282F30E00B
:1002A000C90186569F4FFC0194912A573F4FF9018F
:1002B0008491882391F0E82FF0E0EE0FFF1FE859BA
:1002C000FF4FA591B491662329F48C9190958923D1
:1002D0008C9308958C91892B8C930895682F70E0EE
:1002E000CB0182559F4FFC012491CB0186569F4F35
:1002F000FC0144916A577F4FFB019491992319F4B3
:1003000020E030E038C0222331F1233021F4809105
:1003100080008F7705C0243031F4809180008F7D7C
:100320008093800018C0213019F484B58F7704C001
:10033000223021F484B58F7D84BD0DC0263021F498
:100340008091B0008F7705C0273029F48091B000EC
:100350008F7D8093B000892F90E0880F991F84587B
:100360009F4FFC01A591B4918C9120E030E0842353
:1003700011F021E030E0C90108951F920F920FB6ED
:100380000F9211242F933F934F935F936F937F931B
:100390008F939F93AF93BF93EF93FF934091C600CA
:1003A000E091EB01F091EC01CF01019660E870E083
:1003B0000E949E039C018091ED019091EE0128170F
:1003C000390739F0E559FE4F40833093EC01209313
:1003D000EB01FF91EF91BF91AF919F918F917F9131
:1003E0006F915F914F913F912F910F900FBE0F90A2
:1003F0001F9018955F926F927F928F929F92AF920B
:10040000BF92CF92DF92EF92FF920F931F93CF9301
:10041000DF93EC013A014B01413482E458078FE04D
:10042000680780E078070CF07FC060E874E88EE130
:1004300090E0A40193010E94D3032150304040403A
:100440005040CA01B90122E030E040E050E00E9493
:10045000D30359016A01A601950120953095409575
:10046000509594E0220F331F441F551F9A95D1F7E2
:1004700060E074E284EF90E00E94D303CA01B90106
:100480002FEF30E040E050E00E947F03A401930191
:100490000E94D303C90181509F4F181619061CF4FE
:1004A000522E5A9403C055245394521A60E079E0B6
:1004B0008DE390E0A40193010E94D30321503040CA
:1004C00040405040CA01B90122E030E040E050E035
:1004D0000E94D303209530954095509583E0220FDC
:1004E000331F441F551F8A95D1F760E074E284EFF3
:1004F00090E00E94D303CA01B9012FEF30E040E041
:1005000050E00E947F03A40193010E94D303C9011C
:1005100081509F4F181619061CF4822F815002C07B
:1005200081E0821B851500F5E885F98581E090E082
:100530000A8802C0880F991F0A94E2F7808360E05E
:1005400079E08DE390E0A40193010E94D303215050
:10055000304040405040CA01B90122E030E040E064
:1005600050E00E94D30304C0E885F985108295010C
:10057000EC81FD813083EE81FF812083EA85FB855C
:10058000208141E050E0CA010E8402C0880F991F0B
:100590000A94E2F7282B2083EA85FB852081CA0193
:1005A0000F8402C0880F991F0A94E2F7282B20833A
:1005B000EA85FB858081088802C0440F551F0A9494
:1005C000E2F7842B8083DF91CF911F910F91FF90F1
:1005D000EF90DF90CF90BF90AF909F908F907F90E3
:1005E0006F905F900895FC01A085B18521898C9161
:1005F00090E0022E02C0959587950A94E2F780FF5D
:10060000F6CF0484F585E02D608308958BE591E0B5
:100610009093F0018093EF018BE691E09093F201CB
:100620008093F10185EC90E09093F4018093F301C5
:1006300084EC90E09093F6018093F50180EC90E0DB
:100640009093F8018093F70181EC90E09093FA0188
:100650008093F90186EC90E09093FC018093FB017C
:1006600084E08093FD0183E08093FE0187E0809326
:10067000FF0185E08093000281E0809301020895EC
:100680000F931F93CF93DF938C01EB0109C0219649
:10069000D801ED91FC910190F081E02DC801099500
:1006A00068816623A1F7DF91CF911F910F91089583
:1006B000EF92FF920F931F93CF93DF938C017B01F7
:1006C000EA010CC0D7016D917D01D801ED91FC913B
:1006D0000190F081E02DC80109952197209791F7AD
:1006E000DF91CF911F910F91FF90EF900895DC0162
:1006F000ED91FC910280F381E02D09950895629FB0
:10070000D001739FF001829FE00DF11D649FE00D09
:10071000F11D929FF00D839FF00D749FF00D659F6A
:10072000F00D9927729FB00DE11DF91F639FB00D69
:10073000E11DF91FBD01CF011124089597FB092E7A
:1007400007260AD077FD04D049D006D000201AF43D
:10075000709561957F4F0895F6F7909581959F4F1D
:100760000895A1E21A2EAA1BBB1BFD010DC0AA1FF2
:10077000BB1FEE1FFF1FA217B307E407F50720F00A
:10078000A21BB30BE40BF50B661F771F881F991F85
:100790001A9469F760957095809590959B01AC01CE
:1007A000BD01CF01089597FB092E05260ED057FDF8
:1007B00004D0D7DF0AD0001C38F45095409530950E
:1007C00021953F4F4F4F5F4F0895F6F790958095D5
:1007D000709561957F4F8F4F9F4F0895AA1BBB1B4C
:1007E00051E107C0AA1FBB1FA617B70710F0A61B31
:1007F000B70B881F991F5A95A9F780959095BC0152
:10080000CD010895EE0FFF1F0590F491E02D09949E
:04081000F894FFCF8A
:1008140024434C4541520D0A0024474F20312034D3
:100824000D0A00245052494E5420526F626F744294
:10083400617365200D0A0024474F203220320D0ACF
:1008440000245052494E542048656C6C6F20576FF9
:10085400726C64210D0A0024435552534F522031C7
:1008640020310D0A00070000000000F30240035885
:0208740003007F
:00000001FF
